{
  "address": "0xf37242390fA265401Bf59331a587Dc07872B2Ce3",
  "abi": [
    {
      "inputs": [
        {
          "internalType": "address",
          "name": "_eventImplementation",
          "type": "address"
        },
        {
          "internalType": "address",
          "name": "_ticketImplementation",
          "type": "address"
        }
      ],
      "stateMutability": "nonpayable",
      "type": "constructor"
    },
    {
      "inputs": [],
      "name": "FailedDeployment",
      "type": "error"
    },
    {
      "inputs": [
        {
          "internalType": "uint256",
          "name": "balance",
          "type": "uint256"
        },
        {
          "internalType": "uint256",
          "name": "needed",
          "type": "uint256"
        }
      ],
      "name": "InsufficientBalance",
      "type": "error"
    },
    {
      "anonymous": false,
      "inputs": [
        {
          "indexed": false,
          "internalType": "string",
          "name": "eventHash",
          "type": "string"
        },
        {
          "indexed": false,
          "internalType": "address",
          "name": "clone",
          "type": "address"
        }
      ],
      "name": "EventCreated",
      "type": "event"
    },
    {
      "anonymous": false,
      "inputs": [
        {
          "indexed": false,
          "internalType": "string",
          "name": "ticketHash",
          "type": "string"
        },
        {
          "indexed": false,
          "internalType": "address",
          "name": "clone",
          "type": "address"
        }
      ],
      "name": "TicketCreated",
      "type": "event"
    },
    {
      "anonymous": false,
      "inputs": [
        {
          "indexed": true,
          "internalType": "uint256",
          "name": "tokenId",
          "type": "uint256"
        },
        {
          "indexed": true,
          "internalType": "address",
          "name": "ticketAddress",
          "type": "address"
        },
        {
          "indexed": true,
          "internalType": "address",
          "name": "eventAddress",
          "type": "address"
        },
        {
          "indexed": false,
          "internalType": "uint256",
          "name": "blockNumber",
          "type": "uint256"
        },
        {
          "indexed": false,
          "internalType": "address",
          "name": "minter",
          "type": "address"
        }
      ],
      "name": "TicketMinted",
      "type": "event"
    },
    {
      "inputs": [
        {
          "internalType": "address",
          "name": "",
          "type": "address"
        },
        {
          "internalType": "uint256",
          "name": "",
          "type": "uint256"
        }
      ],
      "name": "attendeeToAllTickets",
      "outputs": [
        {
          "internalType": "uint256",
          "name": "tokenId",
          "type": "uint256"
        },
        {
          "internalType": "address",
          "name": "ticketAddress",
          "type": "address"
        },
        {
          "internalType": "address",
          "name": "eventAddress",
          "type": "address"
        }
      ],
      "stateMutability": "view",
      "type": "function"
    },
    {
      "inputs": [
        {
          "internalType": "address",
          "name": "",
          "type": "address"
        },
        {
          "internalType": "address",
          "name": "",
          "type": "address"
        },
        {
          "internalType": "uint256",
          "name": "",
          "type": "uint256"
        }
      ],
      "name": "attendeeToTickets",
      "outputs": [
        {
          "internalType": "uint256",
          "name": "",
          "type": "uint256"
        }
      ],
      "stateMutability": "view",
      "type": "function"
    },
    {
      "inputs": [
        {
          "internalType": "string",
          "name": "eventHash",
          "type": "string"
        }
      ],
      "name": "createEvent",
      "outputs": [
        {
          "internalType": "address",
          "name": "",
          "type": "address"
        }
      ],
      "stateMutability": "nonpayable",
      "type": "function"
    },
    {
      "inputs": [
        {
          "internalType": "address",
          "name": "eventAddress",
          "type": "address"
        },
        {
          "internalType": "string",
          "name": "name",
          "type": "string"
        },
        {
          "internalType": "uint256",
          "name": "maxSupply",
          "type": "uint256"
        },
        {
          "internalType": "uint256",
          "name": "mintPrice",
          "type": "uint256"
        },
        {
          "internalType": "string",
          "name": "ticketHash",
          "type": "string"
        }
      ],
      "name": "createTicket",
      "outputs": [
        {
          "internalType": "address",
          "name": "",
          "type": "address"
        }
      ],
      "stateMutability": "nonpayable",
      "type": "function"
    },
    {
      "inputs": [
        {
          "internalType": "uint256",
          "name": "",
          "type": "uint256"
        }
      ],
      "name": "deployedEvents",
      "outputs": [
        {
          "internalType": "address",
          "name": "",
          "type": "address"
        }
      ],
      "stateMutability": "view",
      "type": "function"
    },
    {
      "inputs": [],
      "name": "eventImplementation",
      "outputs": [
        {
          "internalType": "address",
          "name": "",
          "type": "address"
        }
      ],
      "stateMutability": "view",
      "type": "function"
    },
    {
      "inputs": [
        {
          "internalType": "address",
          "name": "attendee",
          "type": "address"
        },
        {
          "internalType": "address",
          "name": "eventAddress",
          "type": "address"
        }
      ],
      "name": "getAttendeeTicketsForEvent",
      "outputs": [
        {
          "internalType": "uint256[]",
          "name": "",
          "type": "uint256[]"
        }
      ],
      "stateMutability": "view",
      "type": "function"
    },
    {
      "inputs": [],
      "name": "getDeployedEvents",
      "outputs": [
        {
          "internalType": "address[]",
          "name": "",
          "type": "address[]"
        }
      ],
      "stateMutability": "view",
      "type": "function"
    },
    {
      "inputs": [
        {
          "internalType": "uint256",
          "name": "tokenId",
          "type": "uint256"
        }
      ],
      "name": "getTicketOwner",
      "outputs": [
        {
          "internalType": "address",
          "name": "",
          "type": "address"
        }
      ],
      "stateMutability": "view",
      "type": "function"
    },
    {
      "inputs": [
        {
          "internalType": "address",
          "name": "attendee",
          "type": "address"
        }
      ],
      "name": "getTicketsOfAttendee",
      "outputs": [
        {
          "components": [
            {
              "internalType": "uint256",
              "name": "tokenId",
              "type": "uint256"
            },
            {
              "internalType": "address",
              "name": "ticketAddress",
              "type": "address"
            },
            {
              "internalType": "address",
              "name": "eventAddress",
              "type": "address"
            }
          ],
          "internalType": "struct EventFactory.AttendeeTicket[]",
          "name": "",
          "type": "tuple[]"
        }
      ],
      "stateMutability": "view",
      "type": "function"
    },
    {
      "inputs": [
        {
          "internalType": "uint256",
          "name": "tokenId",
          "type": "uint256"
        },
        {
          "internalType": "address",
          "name": "ticketAddress",
          "type": "address"
        },
        {
          "internalType": "address",
          "name": "eventAddress",
          "type": "address"
        },
        {
          "internalType": "address",
          "name": "minter",
          "type": "address"
        }
      ],
      "name": "recordMint",
      "outputs": [],
      "stateMutability": "nonpayable",
      "type": "function"
    },
    {
      "inputs": [],
      "name": "ticketImplementation",
      "outputs": [
        {
          "internalType": "address",
          "name": "",
          "type": "address"
        }
      ],
      "stateMutability": "view",
      "type": "function"
    },
    {
      "inputs": [
        {
          "internalType": "uint256",
          "name": "",
          "type": "uint256"
        }
      ],
      "name": "ticketToAttendee",
      "outputs": [
        {
          "internalType": "address",
          "name": "",
          "type": "address"
        }
      ],
      "stateMutability": "view",
      "type": "function"
    }
  ],
  "transactionHash": "0x74ed162288db86ec4b809b2e6d3af34e5b6346fc7a095b52e50749d95e9f66ab",
  "args": [
    "0x1916214Cefba2D9E21d15DBF98D7E9400D2f13c8",
    "0x22477c0E832CAfF1850926016A233172442A0ed1"
  ],
  "numDeployments": 2,
  "solcInputHash": "6a00c98bd4c0d20ce8ca6c3d05cdfa08",
  "bytecode": "0x60c060405234801561001057600080fd5b50604051610f5b380380610f5b83398101604081905261002f91610062565b6001600160a01b039182166080521660a052610095565b80516001600160a01b038116811461005d57600080fd5b919050565b6000806040838503121561007557600080fd5b61007e83610046565b915061008c60208401610046565b90509250929050565b60805160a051610e8c6100cf6000396000818161018b015281816103ab015261079b01526000818161025801526107600152610e8c6000f3fe608060405234801561001057600080fd5b50600436106100cf5760003560e01c80635de7bdc71161008c578063ad09340911610066578063ad0934091461020a578063c7f43db614610233578063cd8425be14610253578063eade22f61461027a57600080fd5b80635de7bdc7146101ad5780637231f6cf146101d65780639bc2bc71146101f757600080fd5b806312c359bb146100d457806327aa6552146101045780633678c7e81461013c578063377154001461015c5780633812783e146101715780633a72eeab14610186575b600080fd5b6100e76100e2366004610a8b565b61028d565b6040516001600160a01b0390911681526020015b60405180910390f35b610117610112366004610b15565b6104d4565b604080519384526001600160a01b0392831660208501529116908201526060016100fb565b61014f61014a366004610b41565b610521565b6040516100fb9190610b7a565b61016f61016a366004610bbe565b61059b565b005b6101796106b8565b6040516100fb9190610c11565b6100e77f000000000000000000000000000000000000000000000000000000000000000081565b6100e76101bb366004610c52565b6002602052600090815260409020546001600160a01b031681565b6101e96101e4366004610c6b565b61071a565b6040519081526020016100fb565b6100e7610205366004610cac565b610758565b6100e7610218366004610c52565b6000908152600260205260409020546001600160a01b031690565b610246610241366004610ce9565b610897565b6040516100fb9190610d0d565b6100e77f000000000000000000000000000000000000000000000000000000000000000081565b6100e7610288366004610c52565b610934565b60006001600160a01b0386166102e25760405162461bcd60e51b8152602060048201526015602482015274496e76616c6964206576656e74206164647265737360581b60448201526064015b60405180910390fd5b336001600160a01b0316866001600160a01b0316638da5cb5b6040518163ffffffff1660e01b8152600401602060405180830381865afa15801561032a573d6000803e3d6000fd5b505050506040513d601f19601f8201168201806040525081019061034e9190610d73565b6001600160a01b0316146103a45760405162461bcd60e51b815260206004820152601d60248201527f43616c6c6572206973206e6f7420746865206576656e74206f776e657200000060448201526064016102d9565b60006103cf7f000000000000000000000000000000000000000000000000000000000000000061095e565b6040516333eea18160e01b81529091506001600160a01b038216906333eea18190610404908990899089903390600401610dd6565b600060405180830381600087803b15801561041e57600080fd5b505af1158015610432573d6000803e3d6000fd5b5050604051636089351b60e11b81526001600160a01b0384811660048301528a16925063c1126a369150602401600060405180830381600087803b15801561047957600080fd5b505af115801561048d573d6000803e3d6000fd5b505050507fd822f61f6a447402944f4fd46b908accaa48625d1599487cd6ae7b197cb12c6383826040516104c2929190610e2c565b60405180910390a19695505050505050565b600360205281600052604060002081815481106104f057600080fd5b60009182526020909120600390910201805460018201546002909201549093506001600160a01b0391821692501683565b6001600160a01b03808316600090815260016020908152604080832093851683529281529082902080548351818402810184019094528084526060939283018282801561058d57602002820191906000526020600020905b815481526020019060010190808311610579575b505050505090505b92915050565b816001600160a01b0316836001600160a01b0316857f559db1a551c77fc0584b30434dfaf17be73a7fb313edc3ce2577b2fd08b1127043856040516105f39291909182526001600160a01b0316602082015260400190565b60405180910390a4600084815260026020818152604080842080546001600160a01b039687166001600160a01b03199182168117909255818652600180855283872098881680885298855283872080548083018255908852858820018b9055918652600380855283872084516060810186529b8c529988168b8601908152938b0198895289548084018b559987529390952098519790920290970195865595519585018054968416968316969096179095559151929093018054929093169116179055565b6060600080548060200260200160405190810160405280929190818152602001828054801561071057602002820191906000526020600020905b81546001600160a01b031681526001909101906020018083116106f2575b5050505050905090565b6001602052826000526040600020602052816000526040600020818154811061074257600080fd5b9060005260206000200160009250925050505481565b6000806107847f000000000000000000000000000000000000000000000000000000000000000061095e565b60405163c0c53b8b60e01b81526001600160a01b037f0000000000000000000000000000000000000000000000000000000000000000811660048301523360248301523060448301529192509082169063c0c53b8b90606401600060405180830381600087803b1580156107f757600080fd5b505af115801561080b573d6000803e3d6000fd5b5050600080546001810182559080527f290decd9548b62a8d60345a988386fc84ba6bc95484008f6362f93160ef3e5630180546001600160a01b0319166001600160a01b03851617905550506040517f2b20c961d6d0daf3f50b080228f74d6eb895e4cd1b7eac76d725eb5c39253345906108899085908490610e2c565b60405180910390a192915050565b6001600160a01b0381166000908152600360209081526040808320805482518185028101850190935280835260609492939192909184015b828210156109295760008481526020908190206040805160608101825260038602909201805483526001808201546001600160a01b03908116858701526002909201549091169183019190915290835290920191016108cf565b505050509050919050565b6000818154811061094457600080fd5b6000918252602090912001546001600160a01b0316905081565b6000610595828280763d602d80600a3d3981f3363d3d373d3d3d363d730000008360601b60e81c176000526e5af43d82803e903d91602b57fd5bf38360781b176020526037600983f090506001600160a01b0381166105955760405163b06ebf3d60e01b815260040160405180910390fd5b6001600160a01b03811681146109e557600080fd5b50565b634e487b7160e01b600052604160045260246000fd5b600082601f830112610a0f57600080fd5b813567ffffffffffffffff80821115610a2a57610a2a6109e8565b604051601f8301601f19908116603f01168101908282118183101715610a5257610a526109e8565b81604052838152866020858801011115610a6b57600080fd5b836020870160208301376000602085830101528094505050505092915050565b600080600080600060a08688031215610aa357600080fd5b8535610aae816109d0565b9450602086013567ffffffffffffffff80821115610acb57600080fd5b610ad789838a016109fe565b955060408801359450606088013593506080880135915080821115610afb57600080fd5b50610b08888289016109fe565b9150509295509295909350565b60008060408385031215610b2857600080fd5b8235610b33816109d0565b946020939093013593505050565b60008060408385031215610b5457600080fd5b8235610b5f816109d0565b91506020830135610b6f816109d0565b809150509250929050565b6020808252825182820181905260009190848201906040850190845b81811015610bb257835183529284019291840191600101610b96565b50909695505050505050565b60008060008060808587031215610bd457600080fd5b843593506020850135610be6816109d0565b92506040850135610bf6816109d0565b91506060850135610c06816109d0565b939692955090935050565b6020808252825182820181905260009190848201906040850190845b81811015610bb25783516001600160a01b031683529284019291840191600101610c2d565b600060208284031215610c6457600080fd5b5035919050565b600080600060608486031215610c8057600080fd5b8335610c8b816109d0565b92506020840135610c9b816109d0565b929592945050506040919091013590565b600060208284031215610cbe57600080fd5b813567ffffffffffffffff811115610cd557600080fd5b610ce1848285016109fe565b949350505050565b600060208284031215610cfb57600080fd5b8135610d06816109d0565b9392505050565b602080825282518282018190526000919060409081850190868401855b82811015610d6657815180518552868101516001600160a01b039081168887015290860151168585015260609093019290850190600101610d2a565b5091979650505050505050565b600060208284031215610d8557600080fd5b8151610d06816109d0565b6000815180845260005b81811015610db657602081850181015186830182015201610d9a565b506000602082860101526020601f19601f83011685010191505092915050565b60a081526000610de960a0830187610d90565b828103602084015260048152631513919560e21b60208201526040810191505084604083015283606083015260018060a01b038316608083015295945050505050565b604081526000610e3f6040830185610d90565b905060018060a01b0383166020830152939250505056fea2646970667358221220ec2e79596823585df06e21732b90e81a5c04921bc0dede36fea63816b0fc853364736f6c63430008140033",
  "devdoc": {
    "errors": {
      "FailedDeployment()": [
        {
          "details": "The deployment failed."
        }
      ],
      "InsufficientBalance(uint256,uint256)": [
        {
          "details": "The ETH balance of the account is not enough to perform the operation."
        }
      ]
    },
    "kind": "dev",
    "methods": {},
    "version": 1
  },
  "userdoc": {
    "kind": "user",
    "methods": {},
    "version": 1
  },
  "storageLayout": {
    "storage": [
      {
        "astId": 6552,
        "contract": "contracts/EventFactory.sol:EventFactory",
        "label": "deployedEvents",
        "offset": 0,
        "slot": "0",
        "type": "t_array(t_address)dyn_storage"
      },
      {
        "astId": 6590,
        "contract": "contracts/EventFactory.sol:EventFactory",
        "label": "attendeeToTickets",
        "offset": 0,
        "slot": "1",
        "type": "t_mapping(t_address,t_mapping(t_address,t_array(t_uint256)dyn_storage))"
      },
      {
        "astId": 6594,
        "contract": "contracts/EventFactory.sol:EventFactory",
        "label": "ticketToAttendee",
        "offset": 0,
        "slot": "2",
        "type": "t_mapping(t_uint256,t_address)"
      },
      {
        "astId": 6600,
        "contract": "contracts/EventFactory.sol:EventFactory",
        "label": "attendeeToAllTickets",
        "offset": 0,
        "slot": "3",
        "type": "t_mapping(t_address,t_array(t_struct(AttendeeTicket)6583_storage)dyn_storage)"
      }
    ],
    "types": {
      "t_address": {
        "encoding": "inplace",
        "label": "address",
        "numberOfBytes": "20"
      },
      "t_array(t_address)dyn_storage": {
        "base": "t_address",
        "encoding": "dynamic_array",
        "label": "address[]",
        "numberOfBytes": "32"
      },
      "t_array(t_struct(AttendeeTicket)6583_storage)dyn_storage": {
        "base": "t_struct(AttendeeTicket)6583_storage",
        "encoding": "dynamic_array",
        "label": "struct EventFactory.AttendeeTicket[]",
        "numberOfBytes": "32"
      },
      "t_array(t_uint256)dyn_storage": {
        "base": "t_uint256",
        "encoding": "dynamic_array",
        "label": "uint256[]",
        "numberOfBytes": "32"
      },
      "t_mapping(t_address,t_array(t_struct(AttendeeTicket)6583_storage)dyn_storage)": {
        "encoding": "mapping",
        "key": "t_address",
        "label": "mapping(address => struct EventFactory.AttendeeTicket[])",
        "numberOfBytes": "32",
        "value": "t_array(t_struct(AttendeeTicket)6583_storage)dyn_storage"
      },
      "t_mapping(t_address,t_array(t_uint256)dyn_storage)": {
        "encoding": "mapping",
        "key": "t_address",
        "label": "mapping(address => uint256[])",
        "numberOfBytes": "32",
        "value": "t_array(t_uint256)dyn_storage"
      },
      "t_mapping(t_address,t_mapping(t_address,t_array(t_uint256)dyn_storage))": {
        "encoding": "mapping",
        "key": "t_address",
        "label": "mapping(address => mapping(address => uint256[]))",
        "numberOfBytes": "32",
        "value": "t_mapping(t_address,t_array(t_uint256)dyn_storage)"
      },
      "t_mapping(t_uint256,t_address)": {
        "encoding": "mapping",
        "key": "t_uint256",
        "label": "mapping(uint256 => address)",
        "numberOfBytes": "32",
        "value": "t_address"
      },
      "t_struct(AttendeeTicket)6583_storage": {
        "encoding": "inplace",
        "label": "struct EventFactory.AttendeeTicket",
        "members": [
          {
            "astId": 6578,
            "contract": "contracts/EventFactory.sol:EventFactory",
            "label": "tokenId",
            "offset": 0,
            "slot": "0",
            "type": "t_uint256"
          },
          {
            "astId": 6580,
            "contract": "contracts/EventFactory.sol:EventFactory",
            "label": "ticketAddress",
            "offset": 0,
            "slot": "1",
            "type": "t_address"
          },
          {
            "astId": 6582,
            "contract": "contracts/EventFactory.sol:EventFactory",
            "label": "eventAddress",
            "offset": 0,
            "slot": "2",
            "type": "t_address"
          }
        ],
        "numberOfBytes": "96"
      },
      "t_uint256": {
        "encoding": "inplace",
        "label": "uint256",
        "numberOfBytes": "32"
      }
    }
  }
}